:100000000C94E3070C942A080C942A080C942A08F0
:100010000C942A080C942A080C942A080C942A0898
:100020000C942A080C942A080C94F6250C94B225FA
:100030000C94292C0C942A080C942A080C942A0855
:100040000C942A080C942A080C942A080C942A0868
:100050000C942A080C94052C0C942A080C942A0859
:100060000C942A080C942A080C942A080C942A0848
:100070000C942A080C942A080C942A080C942A0838
:100080000C942A080C942A080C942A080C942A0828
:100090000C94502C0C942A080C942A080C942A08CE
:1000A0000C942A080C942A080C942A080631FF099B
:1000B00074A1010975150026FF00952075088102BD
:1000C0000976150026FF00952075089102C00501EC
:1000D0000902A10185020901A100050919012908E8
:1000E00015002501950875018102050109300931C6
:1000F0001581257F95027508810609381581257FB0
:10010000950175088106050C0A38021581257F9531
:100110000175088106C0C005010980A10185031988
:10012000012AB700150126B700950175108100C09E
:10013000050C0901A101850419012AA00215012657
:10014000A002950175108100C005010906A1018575
:1001500005050719E029E7150025019508750181B6
:10016000020507190029EF1500250195F075018199
:10017000020508190129059505750191029501757A
:10018000039101C00660FF0961A101096215002603
:10019000FF009520750881020963150026FF009570
:1001A0002075089102C005010906A101050719E0A3
:1001B00029E715002501950875018102950175084B
:1001C00081010507190029FF150026FF0095067516
:1001D0000881000508190129059505750191029509
:1001E0000175039101C00A002575002E6E6B726FB8
:1001F0003A20000A002575002E737761705F6261F6
:10020000636B736C6173685F6261636B737061636E
:10021000653A20000A002575002E737761705F67CC
:10022000726176655F6573633A20000A0025750088
:100230002E6E6F5F6775693A20000A002575002EE3
:10024000737761705F72616C745F726775693A2071
:10025000000A002575002E737761705F6C616C7405
:100260005F6C6775693A20000A002575002E737768
:1002700061705F7263746C5F726775693A20000A1F
:10028000002575002E737761705F6C63746C5F6C12
:100290006775693A20000A002575002E6361707346
:1002A0006C6F636B5F746F5F636F6E74726F6C3AC9
:1002B00020000A002575002E737761705F636F6EF2
:1002C00074726F6C5F636170736C6F636B3A200064
:1002D0000A0025303258006B65796D61705F636F7D
:1002E0006E6669672E7261773A20000A00257500F4
:1002F0002E6D6F7573653A20000A002575002E6B10
:100300006579626F6172643A20000A002575002EDB
:100310006D61747269783A20000A002575002E65B7
:100320006E61626C653A20000A0025303258006424
:10033000656275675F636F6E6669672E7261773A93
:1003400020000A0025750064656661756C745F6C39
:10035000617965723A20000A092D204D6167696351
:10036000202D0A443A094465627567204D65737310
:1003700061676520546F67676C650A583A094D617B
:1003800074726978204465627567204D6F646520DA
:10039000546F67676C65202D2053686F77206B65FD
:1003A000797072657373657320696E206D61747204
:1003B000697820677269640A4B3A094B6579626F04
:1003C00061726420446562756720546F67676C656D
:1003D000202D2053686F77206B6579707265737379
:1003E000207265706F72740A4D3A094465627567D0
:1003F000204D6F75736520546F67676C650A563AB8
:100400000956657273696F6E0A533A0953746174C1
:1004100075730A433A0941637469766174652043D0
:100420006F6E736F6C65204D6F64650A46312D46A3
:1004300031303A0953776974636820746F204C61D6
:1004400079657220302D392028463130203D204CEE
:1004500030290A302D393A0953776974636820745A
:100460006F204C6179657220302D390A4752415610
:10047000453A0953776974636820746F204C617939
:10048000657220302028616C7465726E6174652914
:100490000A423A094A756D7020746F20426F6F747A
:1004A0006C6F616465720A4553433A094A756D7011
:1004B00020746F20426F6F746C6F616465722028C6
:1004C000616C7465726E617465290A453A095072EF
:1004D000696E7420454550524F4D205365747469C0
:1004E0006E67730A4253504143453A09436C656154
:1004F0007220454550524F4D0A4E3A094E4B524FCD
:1005000020546F67676C650A004743433A20382ED2
:10051000342E30204156522D4C4942433A20322E3F
:10052000302E30204156525F415243483A20617686
:1005300072350A004F5054494F4E533A204C55469D
:1005400041204D4F5553454B455920455854524134
:100550004B455920434F4E534F4C4520434F4D4D33
:10056000414E44204E4B524F204C544F2034303992
:10057000360A004255494C443A2020284A756E20DC
:1005800031362032303231290A005649443A20307F
:100590007834383533284861737529205049443AF6
:1005A00020307839383043284643393830432920C1
:1005B0005645523A203078303130300A000A092D41
:1005C0002056657273696F6E202D0A0074696D651F
:1005D000725F72656164333228293A202530346CA9
:1005E000580A006B65796D61705F636F6E6669674D
:1005F0002E6E6B726F3A2025580A006B6579626F18
:100600006172645F69646C653A2025580A006B6505
:1006100079626F6172645F70726F746F636F6C3A4E
:100620002025580A00686F73745F6B6579626F618B
:1006300072645F6C65647328293A2025580A000AA1
:10064000092D20537461747573202D0A003F004EEC
:100650004B524F3A206F66660A004E4B524F3A207B
:100660006F6E0A000A6D6F7573653A206F66660AD1
:10067000000A6D6F7573653A206F6E0A000A6B652C
:1006800079626F6172643A206F66660A000A6B6570
:1006900079626F6172643A206F6E0A000A6D61744C
:1006A0007269783A206F66660A000A6D6174726931
:1006B000783A206F6E0A000A64656275673A206FA7
:1006C00066660A000A64656275673A206F6E0A0002
:1006D0000A0A4A756D70696E6720746F20626F6FC9
:1006E000746C6F616465722E2E2E2000433E2000D4
:1006F000436C656172696E6720454550524F4D0AE3
:10070000006565636F6E6669673A0A006D6B5F77B7
:100710006865656C5F74696D655F746F5F6D617846
:10072000203D2025640A006D6B5F776865656C5F0E
:100730006D61785F7370656564203D2025640A00F3
:100740006D6B5F74696D655F746F5F6D6178203D7F
:100750002025640A006D6B5F6D61785F737065655D
:1007600064203D2025640A006D6B5F696E746572BC
:1007700076616C203D2025640A006D6B5F64656CBA
:100780006179203D2025640A006D6B5F776865659F
:100790006C5F74696D655F746F5F6D6178203D207B
:1007A00025640A006D6B5F776865656C5F6D6178C5
:1007B0005F7370656564203D2025640A006D6B5F82
:1007C00074696D655F746F5F6D6178203D2025648D
:1007D0000A006D6B5F6D61785F7370656564203DC5
:1007E0002025640A006D6B5F696E74657276616CBA
:1007F000203D2025640A006D6B5F64656C61792083
:100800003D2025640A0077686572652064656C7414
:10081000613A20637572736F723D25642C2077688E
:1008200065656C3D25640A53656520687474703A8B
:100830002F2F656E2E77696B6970656469612E6F05
:1008400072672F77696B692F4D6F7573655F6B6585
:1008500079730A000A092D204D6F7573656B6579F0
:10086000202D0A4553432F713A09717569740A3175
:100870003A0964656C6179282A31306D73290A322E
:100880003A09696E74657276616C286D73290A3352
:100890003A096D61785F73706565640A343A09746A
:1008A000696D655F746F5F6D61780A353A097768C5
:1008B00065656C5F6D61785F73706565640A363A73
:1008C00009776865656C5F74696D655F746F5F6DEE
:1008D00061780A0A703A097072696E742076616CE8
:1008E0007565730A643A0973657420646566617599
:1008F0006C74730A75703A092B310A646F776E3A1B
:10090000092D310A706775703A092B31300A70670A
:10091000646F776E3A092D31300A0A737065656429
:10092000203D2064656C7461202A206D61785F73BE
:1009300070656564202A2028726570656174202FB7
:100940002074696D655F746F5F6D6178290A004C72
:1009500025640A00290A002575002F002575005D11
:100960002800256400200025640020002564002064
:10097000002564007C0025303258006D6F7573656A
:100980006B6579205B62746E7C78207920762068B4
:100990005D287265702F61636C293A205B005000FE
:1009A000E400E6000000510063004F0062001B00FD
:1009B000E300350019000000290010002C0001514F
:1009C000370000000000590058005A005B001D006D
:1009D000E200E00006000E000000110005003400F7
:1009E0003800360000005C0057005D005E00070024
:1009F0000400E10009000D003A000B000A00E500C8
:100A000033000F003000520000000000000016000C
:100A10001400390015000C003C00180017000000FD
:100A200000000000000000000000000000000000C6
:100A300000000000000000000000000000002E0088
:100A40002D002700310053002A00540055002000DB
:100A50001F000000210026003B00240023002F007F
:100A60001300120028005F005600600061001A00A9
:100A70001E002B00080025003D001C002200440041
:100A80004300420045004C004E0049004B0000006E
:100A900000000000000041003E0040003F004A000E
:100AA0006500010000004E0001004D000100010042
:100AB000010001000100000001000100010001002F
:100AC0000100000000000100010001000100010020
:100AD000010001000100010000000100010001000F
:100AE00001000100000001000100010001000100FF
:100AF00001000100010001000100010001000100EE
:100B00000100010001004B00000000000000010096
:100B10000100010001004600010001000100000089
:100B200000000000000000000000000000000000C5
:100B300000000000000000000000000000000100B4
:100B4000010001000100010001000100010001009D
:100B5000010000000100010001000100010001008E
:100B600048004700010001000100010001000100F0
:100B7000010001000100010001000100010001006D
:100B800001000100010001004D0001004A000000C9
:100B90000000000000000100010001000100010050
:100BA000010001000000010001000100010001003E
:100BB000010001000100000001000100010001002E
:100BC000010000000000010001000100010001001F
:100BD000010001000100010000000100010001000E
:100BE00001000100000001000100010001000100FE
:100BF00001000100010001000100010001000100ED
:100C000001000100010001000000000000000100DF
:100C100001000100010001000100010001000000CD
:100C200000000000000000000000000000000000C4
:100C300000000000000000000000000000000100B3
:100C4000010001000100010001000100010001009C
:100C5000010000000100010001000100010001008D
:100C6000010001000100010001000100010001007C
:100C7000010001000100010001000100010001006C
:100C8000010001000100010001000100010000005D
:100C90000000000000000100010001000100000050
:100CA0000000000000000000000000000000000044
:100CB0000000000000000000000000000000000034
:100CC00000007E0F00D4FFFFFFC700000078000087
:100CD0000000000000002A2B280000000000000097
:100CE00000000000000000000029000000002C1E91
:100CF0003420212224342627252E362D3738271E4E
:100D00001F202122232425263333362E37381F0473
:100D100005060708090A0B0C0D0E0F10111213140B
:100D200015161718191A1B1C1D2F3130232D3504C9
:100D300005060708090A0B0C0D0E0F1011121314EB
:100D400015161718191A1B1C1D2F3130354C444528
:100D50004255473A2064697361626C65642E0A00EB
:100D600044454255473A20656E61626C65642E0ABF
:100D7000000A092D20436F6E736F6C65202D0A45A4
:100D800053432F713A09717569740A6D3A096D6F91
:100D90007573656B65790A003F004D3E2000433E48
:100DA00020000A00257500363A20776865656C5F7B
:100DB00074696D655F746F5F6D61783A20000A0039
:100DC000257500353A20776865656C5F6D61785FE1
:100DD00073706565643A20000A00257500343A2076
:100DE00074696D655F746F5F6D61783A20000A0009
:100DF000257500333A206D61785F73706565643ADC
:100E000020000A00257500323A20696E74657276FA
:100E1000616C286D73293A20000A00257500313A6B
:100E20002064656C6179282A31306D73293A20007D
:100E30000A092D2056616C756573202D0A004D3E00
:100E4000004D25643E20003F007365742064656694
:100E500061756C740A00433E20000A002530325848
:100E600020006B6579626F6172645F7265706F728A
:100E7000743A20006164645F6B65795F6269743AFB
:100E80002063616E2774206164643A2025303258F3
:100E90000A0064656C5F6B65795F6269743A206310
:100EA000616E27742064656C3A20253032580A0040
:100EB000253032583A20253031366225730A0072C7
:100EC0002F6320303132333435363738394142439D
:100ED0004445460A000A0025303258006B657962A5
:100EE0006F6172645F7365745F6C65643A20005B68
:100EF000735D004B6579626F617264207374617217
:100F0000742E0A005B435D005B445D005B535D0033
:100F10005B575D005B525D0009027B00040100A08D
:100F2000FA09040000010301010009211101000177
:100F30002240000705810308000A0904010002039A
:100F4000000000092111010001222200070582038F
:100F5000200001070503032000010904020001032A
:100F600000000009211101000122B60007058403D9
:100F700020000A09040300020300000009211101F6
:100F80000001222200070585032000010705050353
:100F9000200001120110010000000853480C9800C5
:100FA00001010200010E0346004300390038003001
:100FB00000430000000A0348006100730075000050
:100FC00000040309040011241FBECFEFDAE0DEBFE6
:100FD000CDBF04B603FE27C08091B3029091B40246
:100FE000A091B502B091B6028730904BA740B04BAC
:100FF000D1F41092B3021092B4021092B502109282
:10100000B60214BE84B7877F84BF0FB6F894A89544
:1010100080916000886180936000109260000FBE34
:10102000E0E0F8E3099511E0A0E0B1E0E4E5FBE5DC
:1010300002C005900D92A236B107D9F722E0A2E6D0
:10104000B1E001C01D92A33BB207E1F70E94232744
:101050000C94322D0C940000FF93EF93E091620109
:10106000F0916301309709F00995EF91FF91089590
:10107000FC018591803011F0EFDFFBCF0895FF2751
:10108000E0E230E247FF0CC0419597FF09C0EDE276
:101090006095709580959095611D711D811D911DC4
:1010A00027FF02C0219530E350E2AA27660F771F81
:1010B000881F991FAA1FA41710F0A41B63955A95A7
:1010C000A9F7AA3008F0A95FA05DAF93F395611569
:1010D00071058105910541F7ED3211F4EF93F39518
:1010E000F21718F43F93F395FBCF8F91B5DFFA9584
:1010F000E1F70895E991F9918591803021F08532E9
:1011000019F0AADFF9CF089520E0E89455915532FF
:10111000C1F3503311F4689455915A3348F4505345
:1011200090F3220F022E220F220F200D250FF4CF55
:101130000EF4219589919991533619F3533729F17A
:10114000533559F1BC0188279927E8945C3621F47E
:101150008991999168945591543639F446EF7EF00F
:1011600077FF0DC08FEF9FEF0AC055374AE039F087
:10117000583540E121F0523642E009F00895FF93DE
:10118000EF937DDFEF91FF91B7CFFF93EF93FC01DA
:1011900081918030B9F360DFFBCFFF93EF9368DF7D
:1011A000F1CFDF93CF93CDB7DEB72596A3DFCF91F5
:1011B000DF910895E8EDF0E080818E7F80831092CA
:1011C000E2001092DA001092E100A0EEB0E08C9103
:1011D00081608C9380818F77808319BCA7EDB0E00C
:1011E0008C918E7F8C9380818F7E808310927D0284
:1011F00008952091E4003091E50095E6A901209141
:10120000EC00822F817020FF06C08091E80080FFF3
:1012100006C080E008952091E80022FD1AC0809168
:10122000A202882389F0853089F08091EB0085FD4A
:101230000FC02091E4003091E50042175307F9F206
:101240009150E1F684E0089582E0089583E00895E6
:1012500081E00895EF92FF920F931F93CF937C014B
:101260008B010E94F908C82F811117C08091E800F6
:1012700085FD0BC08091E8008E778093E8000E9486
:10128000F908882399F3C82F08C0F70181917F01DD
:101290008093F1000150110949F78C2FCF911F91D4
:1012A0000F91FF90EF9008958091A40287FF13C0E3
:1012B0008091E80082FF06C08091E8008B778093E0
:1012C000E80004C08091A2028111F2CF08958091BC
:1012D000A2028823D9F38091E80080FFF8CF8091A3
:1012E000E8008E77ECCF982F9093E900242F762F8B
:1012F00050E0891731F07091EC002091ED00509191
:10130000F00021FD07C09F5F973071F78093E900DF
:1013100081E008953091EB003E7F3093EB003091F7
:10132000ED003D7F3093ED003091EB003160309364
:10133000EB007093EC002093ED005093F0002091AF
:10134000EE0027FDE0CF80E00895CF92DF92EF928C
:10135000FF920F931F93CF93DF93C8EDD0E0888166
:101360008F7E8883E7EDF0E080818160808384E078
:1013700082BF81E080937D0288818E7F888302EE28
:1013800010E0F80110821092DA0081EEC82ED12C04
:10139000F601108288818F778883888180688883AE
:1013A00088818F7D888319BC1092A2021092A302BB
:1013B0001092A1021092A00290EEE92EF12CF701FA
:1013C00080818B7F808388818160888342E060E0B8
:1013D00080E00E947309F60180818E7F8083F8018E
:1013E000808181608083808188608083F701808133
:1013F0008E7F8083888180618883DF91CF911F9168
:101400000F91FF90EF90DF90CF900895FC018091B5
:10141000AA029091AB0286179707A0F0611571059B
:1014200029F49091E8009E779093E80090E0611590
:10143000710551F4911108C08091E80082FF34C019
:1014400080E00895BC01F2CF8091A2028823C1F10F
:101450008530C1F18091E80083FD30C08091E800C3
:1014600082FDEACF8091E80080FFE1CF8091F30018
:101470002091F200382F6115710519F028303105DF
:1014800058F091E02830310509F090E02091E80013
:101490002E772093E800CBCF81918093F1006150AB
:1014A00071092F5F3F4FE7CF8091A202882341F05F
:1014B000853041F08091E80083FFBECF81E0089540
:1014C00082E0089583E0089580917F0208959C0151
:1014D0004FB7F89480912F0290913002A091310281
:1014E000B09132024FBF821B930B08952FB7F8942F
:1014F00060912F02709130028091310290913202FE
:101500002FBF08952FB7F89480912F029091300249
:10151000A0913102B09132022FBF089580912A022A
:10152000811110922A0208959295907F890F982F29
:10153000977086958695869525E0829FF001112407
:10154000EA52FE4F50E040E080E0219130E0092E69
:1015500002C0369527950A94E2F721703327042EAE
:1015600001C0220F0A94EAF7822B4F5F5F4F45308C
:10157000510559F708959295907F890F982F97708C
:1015800041E001C0440F9A95EAF7869586958695C5
:1015900095E0899FF0011124EA52FE4F30E020E0EF
:1015A00070E05191DF011197CB01022E02C0969598
:1015B00087950A94E2F78170819585278423852792
:1015C0008C932F5F3F4F2530310559F70895809157
:1015D000D5019091A401981301C008958F5F877081
:1015E000FACF20919801309199012817390771F0AD
:1015F0009093990180939801E0915802F0915902DB
:10160000309721F00084F185E02D09940895209110
:101610009601309197012817390771F0909397013F
:1016200080939601E0915802F0915902309721F091
:101630000680F781E02D09940895E0915802F09119
:101640005902309721F00190F081E02D099480E05B
:10165000089540916302803F59F48091640287FFAE
:101660000DC01092640241110BC010925E0208C0BE
:10167000813F81F48091640218169CF3442381F029
:101680008091650290916602892B09F05AC01092F0
:101690005B020895823F49F447FFF0CF1092630246
:1016A000809164028111ECCFE0CF833F19F41416CE
:1016B000ACF3E4CF90916502893F29F41916F4F652
:1016C00010926502DBCF8A3F19F497FFD7CFF8CF8E
:1016D000909166028B3F29F497FFD0CF109266025B
:1016E000CDCF8C3F19F41916CCF3C8CF9CE0980FDE
:1016F000953090F4845F990B21E030E0B90102C08D
:10170000660F771F8A95E2F7CB0180959091620270
:10171000892380936202B2CF8D3F31F480919D0185
:101720008E7F80939D01AACF8E3F21F480919D01F1
:101730008D7FF7CF8F3F09F0A1CF80919D018B7FE7
:10174000F0CF089580919D0180FF0CC06091010150
:1017500070E075956795759567956115710549F107
:10176000862F089581FF06C06091010170E0759594
:101770006795F3CF6091010182FD0BC090915B02F0
:101780009923A1F06091000180910101961738F032
:10179000682F70E06038710500F38FE70895899F26
:1017A000C001112470E00E94BB2CF4CF61E070E016
:1017B000D7CF81E0089580919D0180FF12C0609194
:1017C000030185E0689FB0011124759567957595B3
:1017D000679560387105A8F561157105A1F1862F2F
:1017E000089581FF09C06091030185E0689FB00101
:1017F000112475956795EDCF6091030182FD0AC0B4
:1018000080915E028823D1F09091020160910301E2
:10181000891728F085E0689FB0011124DACF869FF0
:10182000B001112485E0869F9001879F300D11241F
:10183000692F70E0C9010E94BB2CCBCF65E070E03E
:10184000CECF8FE7089581E00895803F31F40E9464
:10185000DB0B8195809364020895813F19F40E9407
:10186000DB0BF8CF823F31F40E94DB0B8195809334
:1018700063020895833F19F40E94DB0BF8CF893F80
:1018800029F40E94A20B8093650208958A3F21F4F7
:101890000E94A20B8195F7CF8B3F31F40E94A20BDF
:1018A00081958093660208958C3F19F40E94A20BE3
:1018B000F8CF9CE0980F953070F4845F990B21E08D
:1018C00030E001C0220F8A95EAF780916202822BF4
:1018D0008093620208958D3F31F480919D01816073
:1018E00080939D0108958E3F21F480919D01826037
:1018F000F7CF8F3FB9F780919D018460F1CF909130
:10190000560292FF06C0282F28712830F9F4877FED
:10191000846093FF06C0282F28712831F1F4877E58
:1019200084612091570220FF06C0382F387138306B
:10193000D9F4877F816021FF06C0282F28712831C4
:10194000D1F4877E816194FD877E0895282F2471CC
:101950002430F9F68B7F8860DCCF282F2471243166
:1019600001F78B7E8861DDCF382F3171313019F767
:101970008E7F8860E0CF282F2171213121F78E7E64
:101980008861E1CF80FF08C02C9A81FF07C02D9AA3
:1019900082FF06C02E9A08952C98F7CF2D98F8CF85
:1019A0002E980895829590E09C01220F331F220FFC
:1019B000331F2C7C95958795959587958373282B58
:1019C00030E0C901880F991F8A7A359527952575CA
:1019D000822B0895CF9384E090E00E94F02CC82FD2
:1019E00081E290E00E94F02C982F8C2FCF910895E7
:1019F0000F931F93CF93DF9320E2629FE0011124A6
:101A000050E0440F551FC40FD51F90E0982F882732
:101A1000C80FD91FCE0186960E94F02C082F10E027
:101A2000102F0027CE0187960E94F02C9801282BBA
:101A3000C901DF91CF911F910F910895462F8330F7
:101A400038F4783028F4603118F4672F0C94F80CCF
:101A500090E080E00895CF93DF930E941E0DEC018B
:101A600082389105A9F1D8F58133910509F496C022
:101A700048F58932910509F48AC08A9709F495C01E
:101A8000C11521E5D20708F0BCC0C11530E5D30768
:101A900008F014C1C83ED10508F09CC0C03ED10575
:101AA00060F5C83AD10508F087C0C53AD10508F0FD
:101AB000FDC0C130D10509F12097F9F0C430D1053E
:101AC000E0F440C08533910509F45AC0C997C1F6C6
:101AD00080915602837089F0C0EED0E00EC0833E44
:101AE000910599F170F4803E910501F1823E9105D6
:101AF00039F68091560282FD21C0CE01DF91CF914F
:101B00000895863E910561F1873E910571F1843E0D
:101B1000910509F0B5CF8091570281FFEECF8091FA
:101B20005602C7EED0E084FD0DC0E7CF809156028B
:101B300080FD12C19091570290FFDFCFC3EED0E03D
:101B400084FFDBCFD0E0C0E0D8CF8091560282FD89
:101B500006C19091570290FDBFCF84FFCECFF2CF48
:101B60008091560283FDDDCFC8CF8091560283FD60
:101B7000F9C09091570291FFF0CFC4EED0E0BDCFF5
:101B80008091560285FFB9CFC9E2D0E0B6CF8091EF
:101B9000560285FFB2CFC5E3D0E0AFCF80915602A9
:101BA00086FFABCFCAE2D0E0A8CF8091560286FF75
:101BB000A4CFC1E3D0E0A1CFCF3BD10518F6C85ADE
:101BC000D0E0CC0FDD1FC15EDE4F0990D881C02D63
:101BD000D46493CFC11540E2D40758F4C11581E015
:101BE000D80708F08ACFC03FD10508F4ABCFD06545
:101BF00084CFC11590E4D90708F4A4CFDF70D06A70
:101C00007CCFC11525E5D20700F5C11534E5D30712
:101C100008F08AC0C11543E5D40708F071C0C115AA
:101C200082E5D80708F467C0CE018370992721E0C8
:101C300030E002C0220F331F8A95E2F7C695C695A1
:101C400080E2C89FE001112452C0C11599E5D9076F
:101C5000A8F4C11528E5D20708F06BC0C11536E518
:101C6000D30708F06FCF8C2F0E947F0CC82FD0E0D5
:101C7000DC2FCC27CC27DF71D0623FCFC1154AE5DE
:101C8000D40708F45BC0CE0190568115904208F04D
:101C900059CF8D2F8F710E947F0C90E0982F88274D
:101CA00088279F719C012C2BE901E6CFC55AD0E013
:101CB000C45EDE4FC881D0E0D0641FCFCE01E4E027
:101CC00096958795EA95E1F783702C2F26952695B2
:101CD000237040E2249F90011124382B8C2F8370B5
:101CE000C1E0D0E002C0CC0FDD1F8A95E2F7C22B25
:101CF000D32BDC6802CFDC2FCC27C16FD06AFDCE9E
:101D0000CE018370992721E030E002C0220F331FFB
:101D10008A95E2F7C695C69590E2C99FE001112425
:101D2000C22BD32BDA68E9CEDC2FCC27C46FD06A64
:101D3000E4CEDC2FCC27C06FD06ADFCE8C2F8F7023
:101D40000E947F0C34E0D695C7953A95E1F7CF70A5
:101D50009C2FEC01D069D1CEC9E3D0E0CECEC2EE4B
:101D6000D0E0CBCEC6EED0E0C8CEBF92CF92DF920D
:101D7000EF92FF920F931F93CF93DF938C01C0904C
:101D8000AF02D090B002E090B102F090B202809128
:101D90002B0290912C02A0912D02B0912E02C82A04
:101DA000D92AEA2AFB2ACFE1D0E0BC2ED701C6010E
:101DB0000C2E04C0B695A795979587950A94D2F7EF
:101DC00080FD0EC0219788F7B12C8B2DDF91CF912C
:101DD0001F910F91FF90EF90DF90CF90BF900895EB
:101DE000B8018C2F0E942B0D019761F3EECFCF939A
:101DF000DF93EC010E94B50EBE01DF91CF910C94F0
:101E00002B0D0E94F70E292F2F7092959F709250E4
:101E10009E3078F4E92FF0E0EC5CF24D0C94CF2C7E
:101E2000803F19F020F4883E20F481E00895843F3B
:101E3000E1F380E00895883EC0F3813FD1F7F5CF0C
:101E4000822F86958695869508956F927F928F92C0
:101E50009F92AF92BF92CF92DF92EF92FF920F9339
:101E60001F93CF93DF938EE9C82E89E0D82E06E426
:101E700011E0E801DA9536011CC0F50185909490D7
:101E8000692DC7010E94FE2C682DC70101960E9492
:101E9000FE2C82E0A80EB11C82E0E80EF11CCE15EB
:101EA000DF0559F780E2680E711CA0960C171D071C
:101EB00031F07E0180E2E81AF1085301DECF13957C
:101EC000D394063484E01807A1F6DF91CF911F91D7
:101ED0000F91FF90EF90DF90CF90BF90AF909F90C9
:101EE0008F907F906F900895CF93DF93C6E2D3E0F9
:101EF00060E0CE010E94FE2C2196C11584E0D80737
:101F0000B9F7DF91CF91089520911001222351F16B
:101F10002091560227FF26C0E62FE695E695E69526
:101F2000EE3178F4E80FF92FF11D677021E030E011
:101F300001C0220F6A95EAF7209582812823228327
:101F400008958091680280FF19C01F926F9382E903
:101F50009EE09F938F930E94D1080F900F900F9057
:101F60000F900895FC01329608962191621303C0E8
:101F7000DF0111971C92E817F907B9F7089520912E
:101F80001001222349F12091560227FF25C0E62F98
:101F9000E695E695E695EE3170F4E80FF92FF11D20
:101FA000677021E030E001C0220F6A95EAF7828174
:101FB000822B828308958091680280FF1EC01F9249
:101FC0006F9384E79EE09F938F930E94D1080F90B8
:101FD0000F900F900F900895FC0132962FEF30E094
:101FE0004191641751F02F3F19F4411101C0232F83
:101FF0003F5F3630A9F72F3F09F40895820F911DF6
:1020000027FD9A95FC0162830895EF92FF920F934A
:102010001F93CF93DF938091290290912802892BFF
:1020200090912702892B8093640190912A02992331
:10203000B1F0892B8093640180911001882309F409
:102040005DC08091560287FF59C08EE1E6E6F1E05F
:1020500090E0815008F054C091110E948E0AE091E6
:102060005802F0915902309709F450C08091100144
:10207000882359F08091560287FF07C08091640140
:102080008093650185E0809364010280F381E02DF7
:1020900084E691E009958091680282FF37C080FF55
:1020A00004C082E69EE00E943808C4E6D1E08CE6D7
:1020B000E82E81E0F82E0CE51EE08091680280FF9A
:1020C0000BC088811F928F931F930F930E94D1089A
:1020D0000F900F900F900F902196EC16FD0669F768
:1020E0008091680280FF12C08AE59EE0DF91CF9167
:1020F0001F910F91FF90EF900C94380886E0A6CFC7
:102100002191222309F4A5CF9F5FA3CFDF91CF9127
:102110001F910F91FF90EF900895882341F08095D3
:10212000909129028923809329020C940510089527
:10213000882339F090912902982B909329020C94CE
:10214000051008958091680283FF7EC08BE799E0B7
:102150000E943808809162021F928F9386E799E06F
:102160009F938F930E94D10884E799E00E943808DA
:1021700080916302282F082E000C330B3F938F931E
:1021800081E799E09F938F930E94D1088FE699E0B1
:102190000E94380880916402282F082E000C330B0F
:1021A0003F938F938CE699E09F938F930E94D10881
:1021B0008AE699E00E94380880916502282F082E4F
:1021C000000C330B3F938F9387E699E09F938F9397
:1021D0000E94D10885E699E00E9438088091660245
:1021E000282F082E000C330B3F938F9382E699E043
:1021F0009F938F930E94D1088FE599E00E94380841
:1022000080915E021F928F938CE599E09F938F934C
:102210000E94D1088AE599E00E94380880919D01CA
:102220001F928F9387E599E09F938F930E94D10827
:1022300084E599E00E9438088DB79EB74C960FB69A
:10224000F8949EBF0FBE8DBF0E94820A9C019091A0
:10225000630280916402982B21F0309360022093F6
:102260005F029091650280916602982B21F0309375
:102270005D0220935C02E0915802F0915902309780
:1022800049F082E0809361020480F581E02D81E6CF
:1022900092E00994089590E080E00E94070B90E09E
:1022A00080E00E94F10A10922802109227020E94F8
:1022B000051086E0E1E6F2E0DF011D928A95E9F77C
:1022C00010925E0210925B0210929D010C94A2107B
:1022D0006093AF027093B0028093B1029093B20208
:1022E0000C944B110F931F936091AF027091B00249
:1022F0008091B1029091B2028B019C01067011276E
:1023000022273327063011052105310529F468609D
:102310001F910F910C946811677FFACF0F931F9351
:1023200041E050E060E070E004C0440F551F661FBC
:10233000771F8A95D2F7CB01BA0160957095809589
:1023400090950091AF021091B0022091B1023091AE
:10235000B20260237123822393231F910F910C9467
:102360006811909126028095892380932602282F58
:10237000277071F4282F082E000C330B92171306C8
:1023800039F08595859585950E948E1110922602CB
:1023900008950F931F9341E050E060E070E004C0A7
:1023A000440F551F661F771F8A95D2F78091AF02A1
:1023B0009091B002A091B102B091B2028A019B014A
:1023C000082B192B2A2B3B2BC901B8011F910F9108
:1023D0000C94681160932B0270932C0280932D0251
:1023E00090932E020C944B118823B1F19CEF980F1F
:1023F000913A38F4682F84E691E00E94840F0C949F
:10240000051090E2980F983088F4877021E030E052
:10241000A90102C0440F551F8A95E2F7CA018095B1
:1024200090912902892380932902E9CF9BE5980F97
:10243000933020F490E080E00C94070B98E5980F1F
:10244000973120F490E080E00C94F10A803F20F076
:102450000E94290B0C94A210089584E598E00E9434
:1024600038081F9281E08F931F9285E08F9386E05A
:1024700098E09F938F930E94D1080F900F900F9038
:102480000F900F900F9008958330C9F128F4813098
:1024900061F0823019F10895853009F452C008F4D2
:1024A0003FC0863009F45EC008958091040168172A
:1024B00090F4861B80930401809104011F928F93F6
:1024C00087EF97E09F938F930E94D1080F900F9012
:1024D0000F900F90089510920401EECF80910501A6
:1024E000681750F4861B80930501809105011F92A7
:1024F0008F9385EE97E0E6CF10920501F6CF80919D
:102500000301681750F4861B809303018091030137
:102510001F928F9382ED97E0D5CF10920301F6CFF3
:1025200080910201681750F4861B8093020180910C
:1025300002011F928F938DEB97E0C4CF109202019E
:10254000F6CF80910101681750F4861B809301013A
:10255000809101011F928F9384EA97E0B3CF10928C
:102560000101F6CF80910001681750F4861B80931B
:102570000001809100011F928F9389E897E0A2CF1C
:1025800010920001F6CF833009F445C028F4813061
:1025900061F0823049F10895853009F46AC008F489
:1025A00051C0863009F47CC0089580910401482F01
:1025B000460F5527551F4F3F510594F4680F609300
:1025C0000401809104011F928F938AE797E09F9303
:1025D0008F930E94D1080F900F900F900F90089545
:1025E0008FEF80930401EDCF80910501482F460FB6
:1025F0005527551F4F3F510554F4680F609305014F
:10260000809105011F928F9388E697E0E0CF8FEFCE
:1026100080930501F5CF80910301482F460F552780
:10262000551F4F3F510554F4680F6093030180918B
:1026300003011F928F9385E597E0C9CF8FEF8093B9
:102640000301F5CF80910201482F460F5527551FF2
:102650004F3F510554F4680F6093020180910201CD
:102660001F928F9380E497E0B2CF8FEF80930201A7
:10267000F5CF80910101482F460F5527551F4F3F39
:10268000510554F4680F60930101809101011F927C
:102690008F9387E297E09BCF8FEF80930101F5CF77
:1026A00080910001482F460F5527551F4F3F510578
:1026B00054F4680F60930001809100011F928F9382
:1026C0008CE097E084CF8FEF80930001F5CF9FB728
:1026D000F89410927B029FBF9091A202943009F06F
:1026E00048C02091E9002F703091EC00932F917039
:1026F00030FD90E8922B25E02093E9002091EB003B
:1027000020FF34C02091EE0027FF30C0209133021B
:10271000222321F02091E80025FF28C010923302E7
:1027200026E03091E80035FF14C08093F1008091DD
:10273000E80085FD27C08091E80080FFFCCF8091F4
:10274000E8008E778093E8009F709093E90080E026
:1027500008953091A202343049F43091EB0035FDF8
:1027600005C0215041F481E0809333029F70909323
:10277000E9008FEF0895EFE9FFE03197F1F700C02E
:102780000000CFCF8FB7F89421E020937B028FBF5A
:10279000DBCFCF93DF9300D00F92CDB7DEB7909110
:1027A000A202943011F589837B836A839093E900B8
:1027B0008FEF9091E800815095FD06C095ED9A95B8
:1027C000F1F700008111F5CF8091E80085FF0DC081
:1027D00050E040E063E070E0CE0101960E942A09DB
:1027E0008091E8008E778093E8000F900F900F9013
:1027F000DF91CF910895BC0184E00C94C913BC0112
:1028000083E00C94C9139C0184E08093E9009FEF5E
:102810008091E800915085FD06C085ED8A95F1F71D
:1028200000009111F5CF8091E80085FF0CC050E0C9
:1028300040E066E070E0C9010E942A098091E8004A
:102840008E778093E8000895CF93DF93EC01809119
:1028500010018823B1F18091560287FF32C060E2F7
:1028600084E08093E9008FEF9091E800815095FD1E
:1028700006C095ED9A95F1F700008111F5CF809192
:10288000E80085FF1BC08091100170E050E040E03F
:10289000811104C050E040E068E070E0CE010E9489
:1028A0002A098091E8008E778093E80080E2FE019B
:1028B000A0E8B2E001900D928A95E1F7DF91CF9107
:1028C000089568E081E0CDCF81E08093E00080E270
:1028D0008093D8001092C9008FE19EE40197F1F730
:1028E00000C0000087E090EBDC018093B30290937E
:1028F000B402A093B502B093B60288E19CE00FB693
:10290000F894A895809360000FBE90936000FFCF6D
:10291000AF92BF92DF92EF92FF920F931F93CF93EC
:10292000DF938091340290913502209179023091A9
:102930007A02309335022093340290937A02809386
:102940007902D0E0C0E001E010E085B1807F8C2BFF
:1029500085B9B8010C2E02C0660F771F0A94E2F702
:102960005B01A094B09490E080E040E02BB12F7820
:10297000242B2BB9EAE0EA95F1F700C0A0913402CC
:10298000B0913502A80FB91F2D913C912623372312
:10299000232B09F0479AF5E3FA95F1F70000D6B436
:1029A0005F982AE02A95F1F700C0209179023091D2
:1029B0007A027901E80EF91EF701369B4BC0A0811F
:1029C000B181AA21BB21B183A08356B55D195630D0
:1029D00070F0A0913402B0913502A80FB91F0D908C
:1029E000BC91A02D280F391FF901B183A083FAE112
:1029F000FA95F1F700C047985F9AEBE2F1E0319762
:102A0000F1F700C00000405F0296403809F0AECFF9
:102A1000A0917902B0917A02E0913402F0913502EE
:102A200050962D913C91808991892817390711F092
:102A30000E94760A2196C031D10509F086CF81E047
:102A4000DF91CF911F910F91FF90EF90DF90BF909A
:102A5000AF900895A081B181A62BB72BB4CF6BEEB8
:102A60007EEF90E080E00E941C2D60E082E090E02C
:102A70000E94FE2C60E083E090E00E94FE2C109209
:102A80002B0210922C0210922D0210922E0260E066
:102A900084E090E00E94FE2C60E081E290E00E94E1
:102AA000FE2C60E085E090E00E94FE2C60E086E075
:102AB00090E00E94FE2C6FEF87E090E00E94FE2CD9
:102AC00040E050E0BA0188E090E00E94102D60E004
:102AD0008DE090E00E94FE2C40E050E0BA0188E1D9
:102AE00090E00E94102D60E087E190E00E94FE2CB3
:102AF00040E050E0BA018CE190E00E94102D60E0CF
:102B000080E290E00E94FE2C40E050E0BA0188E1B3
:102B100090E00E94102D40E050E0BA018FE090E07C
:102B20000E94102D40E050E0BA0183E190E00C9447
:102B3000102D1092290280911001E6E6F1E0882321
:102B400059F08091560287FF07C08EE1DF011D9288
:102B50008A95E9F70C944B1186E0F8CF1F93CF9339
:102B6000DF93CDB7DEB7AA970FB6F894DEBF0FBEDE
:102B7000CDBF84EA92E02091F100DC012D93CD01DC
:102B8000B2E08C3A9B07B9F78091A502833009F433
:102B900071C0B8F4813009F448C0823009F4B2C081
:102BA0008091E80083FF3AC18091A4029091A50230
:102BB0009A3008F033C1E92FF0E0EE5BF24D0C944F
:102BC000CF2C8A3009F48DC08B3009F470C0893065
:102BD00039F78091A402813219F78091A80290916F
:102BE000A902009711F00297D9F68091E800877F3B
:102BF0008093E8008091E80082FF37C09091F30055
:102C00008091F200029729F48091F1008B7F81304E
:102C100021F48091F10080937F028091E8008B770E
:102C20008093E8000E945409BBCF8091A402813AAE
:102C300009F0B6CF8091E800877F8093E80080910B
:102C4000A8029091A902892B61F460E280E892E0E9
:102C500070E00E94060A8091E8008B778093E8007C
:102C60009FCF60E090E080E0F3CF8091A2028111DD
:102C7000C1CF96CF8091A402813A09F091CF809183
:102C8000A8029091A902892B09F08ACF8091E800CF
:102C9000877F8093E8008091E80080FFFCCF8091DF
:102CA00010018093F1008091E8008E77B9CF809178
:102CB000A402813209F074CF8091A8029091A902F8
:102CC000892B09F06DCF8091E800877F8093E80021
:102CD0000E9454098091A602809310010E949915C8
:102CE0005FCF8091A402813209F05ACF8091E80031
:102CF000877F8093E8000E9454098091A702809307
:102D00007E024ECF8091A402813A09F049CF809192
:102D1000E800877F8093E8008091E80080FFFCCF87
:102D200080917E02BECF803899F0823809F076C05B
:102D30008091A8028F70873008F070C08093E900FE
:102D40008091EB0085FB882780F91092E90006C08E
:102D50008091A0029091A102911182609091E8006F
:102D6000977F9093E8008093F1001092F10080919A
:102D7000E8008E77BAC1882309F4A7C1823009F030
:102D80004DC08091A6028111ABC18091A8028F70C5
:102D90002FEF280F263008F041C08093E9002091E2
:102DA000EB0020FF9DC1933031F48091EB008062F5
:102DB0008093EB0095C19091EB0090619093EB00B4
:102DC00021E030E001C0220F8A95EAF72093EA0063
:102DD0001092EA008091EB008860EACF81111EC05A
:102DE0001091A6021F778091E3008078812B809359
:102DF000E3008091E800877F8093E8000E945409F7
:102E00008091E80080FFFCCF8091E3008068809390
:102E1000E30082E0111183E08093A2028091E80038
:102E200083FF0AC08091E800877F8093E80080914B
:102E3000EB0080628093EB00AA960FB6F894DEBF99
:102E40000FBECDBFDF91CF911F9108958058823082
:102E500028F72091A6023091A7022C3DE3E03E071F
:102E6000A1F583E08A838AE289834FB7F894DE0173
:102E7000139620E03EE051E2E32FF0E0509357003C
:102E8000E49120FF03C0E295EF703F5FEF708E2F5B
:102E900090E0EA30C0F0C7968D939D932F5F243168
:102EA00059F74FBF8091E800877F8093E8006AE27E
:102EB00070E0CE0101960E94060A8091E8008B77AF
:102EC0008093E800ABCFC096E7CF8091A8029091A5
:102ED000A902432F55274330510509F44AC078F51C
:102EE0004130510509F47AC08BE790E0E8E1FFE05A
:102EF0004230510509F092CF2091E800277F2093BE
:102F0000E8002091AA023091AB028217930708F4DF
:102F10009C0140E02115310509F065C0411163C0F5
:102F20008091E80082FDC9CF8091A202882329F216
:102F3000853019F28091E80083FFF2CFBECF413295
:102F4000510509F43CC04232510509F067CF843085
:102F5000910508F063CFFC01EE0FFF1FEF5AFE4F03
:102F60000190F081E02D835B9E4FDC018C9190E01D
:102F70001AC0332721303105D1F02115310561F018
:102F80002230310509F04ACFE5EAFFE0E4918E2FC7
:102F900090E0E5EAFFE007C0E1ECFFE0E4918E2F6E
:102FA00090E0E1ECFFE0009709F438CFA5CFE5EB26
:102FB000FFE0E4918E2F90E0E5EBFFE0F4CF84306A
:102FC000910508F02BCF880F991FFC01E75AFE4F9F
:102FD0000190F081E02D89E090E08ECF82E190E0D9
:102FE000E3E9FFE089CF8091A202882309F465CF4D
:102FF000853009F462CF8091E80083FD5ECF809137
:10300000E80082FD8DCF8091E80080FF83CF909112
:10301000F3008091F2002115310519F088309105F7
:1030200050F041E0089709F040E08091E8008E7789
:103030008093E8006FCF44914093F1003196215086
:1030400031090196E8CF803809F0E8CE8091E80098
:10305000877F8093E8008091A3028093F10087CE60
:103060008111DCCE1091A602123008F0D7CE8091EB
:10307000E800877F8093E8001093A3020E94540920
:10308000112311F084E005C08091E30087FDFACFA1
:1030900081E08093A20242E061EC81E00E9473092A
:1030A00042E261EC84E00E94730942E261EC82E05A
:1030B0000E94730942E260EC83E00E94730942E2DD
:1030C00061EC85E00E947309A9CE8091A60281304F
:1030D00009F0A4CE81E0933009F080E08093A10252
:1030E0001092E9008091E800877F8093E8000E94B9
:1030F000540994CECF93C82F1F928F938FE499E0F9
:103100009F938F930E94D10861E070E080E090E08F
:1031100004C0660F771F881F991FCA95D2F70E94B7
:10312000EA110F900F900F900F90CF910C9499157A
:10313000CF93DF93EBEFE80FEF3308F04EC2F0E0F0
:10314000E45BF24D0C94CF2C81E097E00E943808AC
:1031500087E493E00E94380883E090E00E94F02C1E
:103160001F928F9384E493E09F938F930E94D108E2
:1031700082E493E00E94380882E090E00E94F02C04
:10318000C82F8FE293E00E9438081F92CF938AE203
:1031900093E09F938F930E94D10888E293E00E946E
:1031A00038088EE193E00E9438088C2F81701F92BE
:1031B0008F938BE193E09F938F930E94D10889E1D5
:1031C00093E00E9438088FE093E00E943808C1FB2A
:1031D000882780F91F928F938CE093E09F938F93C1
:1031E0000E94D1088AE093E00E9438088EEF92E0B6
:1031F0000E943808C2FB882780F91F928F938BEFBB
:1032000092E09F938F930E94D10889EF92E00E94F1
:10321000380880EF92E00E943808C3FBCC27C0F941
:103220001F92CF938DEE92E09F938F930E94D108CF
:103230008BEE92E00E9438080E94EA0CEC0187EDC8
:1032400092E00E943808DF93CF9382ED92E09F9343
:103250008F930E94D10880ED92E00E94380887EB9E
:1032600092E00E9438088C2F81701F928F9384EB1C
:1032700092E09F938F930E94D1088DB79EB780965E
:103280000FB6F8949EBF0FBE8DBF82EB92E00E94F6
:1032900038088BE992E00E943808C1FB882780F942
:1032A0001F928F9388E992E09F938F930E94D10899
:1032B00086E992E00E94380884E892E00E9438088B
:1032C0008D2F81701F928F9381E892E09F938F934F
:1032D0000E94D1088FE792E00E9438088DE692E0C4
:1032E0000E943808D695D1701F92DF938AE692E04B
:1032F0009F938F930E94D10888E692E00E9438083D
:1033000086E592E00E943808C2FB882780F91F9268
:103310008F9383E592E09F938F930E94D10881E57C
:1033200092E00E9438088FE392E00E943808C3FBC5
:10333000882780F91F928F938CE392E09F938F935D
:103340000E94D1088AE392E00E94380880E392E06C
:103350000E943808C4FB882780F91F928F938DE262
:1033600092E09F938F930E94D1088BE292E00E949B
:10337000380889E192E00E943808C5FB882780F967
:103380001F928F9386E192E09F938F930E94D108C2
:1033900084E192E00E94380888EF91E00E943808AA
:1033A000C6FB882780F91F928F9385EF91E09F934A
:1033B0008F930E94D1088DB79EB780960FB6F89470
:1033C0009EBF0FBE8DBF83EF91E00E9438088BEE49
:1033D00091E00E943808C7FBCC27C0F91F92CF9319
:1033E00088EE91E09F938F930E94D10886EE91E042
:1033F0000E9438080F900F900F900F9081E01CC032
:1034000080EF96E00E9438080E942F15F7CF87E5DD
:1034100093E00E943808F2CF80916802807F809309
:10342000680281E79DE00E9438088CEE96E00E94D9
:10343000380881E080939C01DF91CF91089580ED61
:1034400096E00E9438080E9499159FEF24E38CE0D3
:10345000915020408040E1F700C000000E946414B9
:1034600090916802892F8E7F90FF8160809368021F
:1034700080FF03C084EC96E0CCCF87EB96E00E94FF
:10348000380880916802817F80936802B7CF90915D
:103490006802892F8D7F91FF82608093680281FF8F
:1034A00008C08AEA96E00E9438088091680281602C
:1034B000EBCF8CE996E0ADCF90916802892F8B7F9E
:1034C00092FF84608093680282FF03C08DE896E0DB
:1034D000EACF8DE796E09DCF90916802892F877F94
:1034E00093FF88608093680283FF03C081E796E0C2
:1034F000DACF84E696E08DCF8DEB95E00E94380818
:103500008AE895E00E94380883E795E00E94380831
:1035100084E395E00E94380889E095E07ACF8FE354
:1035200096E00E9438080E941D0B1F928F9385E23F
:1035300096E09F938F930E94D108809110011F9273
:103540008F938EE096E09F938F930E94D108809195
:103550007E021F928F938BEF95E09F938F930E9433
:10356000D1088091560287FB882780F91F928F939C
:1035700083EE95E09F938F930E94D1080E94760A74
:103580009F938F937F936F938CEC95E09F938F9392
:103590000E94D1088DB79EB746960FB6F8949EBF8D
:1035A0000FBE8DBF2BCF0E94991590915602892F87
:1035B00097FB87F980588093560287FF03C08AE5FE
:1035C00096E027CF8FE496E024CF80E00E947A181F
:1035D00015CF8953FBCF8D51F9CF8DE496E00E9432
:1035E000380880E029CFCF93C82F882309F4B7C0CB
:1035F0008CEF8C0F813A08F071C180919C01813071
:10360000C9F1882369F1823009F461C010929C01EC
:1036100080911001882309F44EC18091560287FFE2
:103620004AC1EC2FE695E695E695F0E0EC59FE4FA1
:10363000828190E04C2F477021E030E002C0220FE1
:10364000331F4A95E2F782239323892B09F43EC165
:103650006C2F84E691E00E94840F0E94051036C111
:10366000809129028232A1F68C2F0E949818811134
:1036700076C0CECF809129028232B1F3C431C9F035
:1036800048F4CB3059F0C031C1F088E99DE00E9488
:10369000380811C0C93269F0C833B9F781E79DE035
:1036A0000E9438088EE99DE00E94380881E0817010
:1036B000DECF10929C0180E0FACF0E942D128AE9A1
:1036C0009DE00E94380882E080939C01EFCFC432D5
:1036D000C8F4CE3108F0BEC0CB30E1F040F4C730C2
:1036E00009F4CFC087E49EE0CF910C943808C33131
:1036F000C1F1C431B9F780919B01882349F110923F
:103700009B010AC0CB3409F4BAC0C0F4C93299F3A2
:10371000C83341F70E942D1280919B01882309F440
:10372000C7C01F928F9381E49EE09F938F930E9466
:10373000D1080F900F900F900F9011C0C13509F470
:1037400098C0C23509F48FC0CE3461F66AE092C0E9
:1037500086E59EE00E94380881E080939C01CF912D
:10376000089580E39EE00E9438088EE19EE00E946A
:103770003808809104011F928F938BE19EE09F9304
:103780008F930E94D10889E19EE00E94380887E06B
:103790009EE00E943808809105011F928F9384E07B
:1037A0009EE09F938F930E94D10882E09EE00E944A
:1037B000380883EF9DE00E943808809103011F9232
:1037C0008F9380EF9DE09F938F930E94D1088EEEA0
:1037D0009DE00E9438088DED9DE00E9438088091A0
:1037E00002011F928F938AED9DE09F938F930E9419
:1037F000D10888ED9DE00E94380883EC9DE00E948E
:103800003808809101011F928F9380EC9DE09F9377
:103810008F930E94D1088EEB9DE00E94380887EAC2
:103820009DE00E943808809100011F928F9384EAE6
:103830009DE09F938F930E94D10882EA9DE00E94B1
:1038400038088DB79EB748960FB6F8949EBF0FBE46
:103850008DBF62CFCE51EC2FF0E0EE5EFE4F808147
:1038600080939B0159CF61E080919B010E94C3121C
:1038700053CF61E080919B010E9444124DCF6AE0DA
:10388000F3CF8EE18093040182E3809305018AE007
:103890008093030184E18093020188E08093010119
:1038A00088E28093000189E49EE00E94380834CFCA
:1038B0008EE39EE019CFE6E6F1E08CE691E02191FF
:1038C000C21709F4C5CE8E179F07C9F76C2F84E67F
:1038D00091E00E94BF0FCF910C94051080E28C0FF5
:1038E000883068F4C77021E030E001C0220FCA952B
:1038F000EAF780912902822B80932902ECCFEBE535
:10390000EC0FE33040F4F0E0E45EFE4F808190E0A5
:10391000CF910C94070BE8E5EC0FE73150F4F0E0A1
:10392000EE0FFF1FE15EFE4F80819181CF910C94DD
:10393000F10AC03F08F413CF8C2F0E94250CCF91C1
:103940000C94A2101F93CF93DF93182FD0E0C0E008
:10395000893311F4C0E5D0E0812F0E94F31A20973B
:1039600031F4812FDF91CF911F910C94F4118FE9E5
:103970009FE00197F1F700C000002197F0CF0F936F
:103980001F93CF93DF93C62FD42F022FFC01828188
:103990008823A1F06093AE020E94820A9093AD0248
:1039A0008093AC02C77081E001C0880FCA95EAF726
:1039B000DF91CF911F910F910C9498108091AE02DE
:1039C000681335C08091AC029091AD020E94670AE5
:1039D000883C910560F510E21D0FCD17B9F080E22B
:1039E0008C0F883040F4C77081E001C0880FCA9501
:1039F000EAF70E948D10183048F481E09D2F9770EF
:103A000001C0880F9A95EAF70E949810802F0E94B3
:103A1000A21C183098F4D77081E001C0880FDA95A5
:103A2000EAF7DF91CF911F910F910C948D10C77021
:103A300081E001C0880FCA95EAF7F3CFDF91CF91FB
:103A40001F910F9108953F924F925F926F927F92D4
:103A50008F929F92AF92BF92CF92DF92EF92FF929E
:103A60000F931F93CF93DF9300D000D00F92CDB769
:103A7000DEB78C01FC0183819481892B31F0808138
:103A8000918189238F3F09F0BEC50F900F900F9051
:103A90000F900F90DF91CF911F910F91FF90EF90BA
:103AA000DF90CF90BF90AF909F908F907F906F905E
:103AB0005F904F903F9008950E94B50EF82E682FAA
:103AC00089819A810E94BB0A69817A818F2D0E9427
:103AD0001E0D7C01F8018281882309F487C59701B6
:103AE00022513F452031310508F053C58FEF93E057
:103AF0000E94F02CFEEEEF0E56E2852E53E0952E3E
:103B0000882381F180912602877009F4BECFF801E5
:103B10008281882309F4B9CF82E00F900F900F9033
:103B20000F900F90DF91CF911F910F91FF90EF9029
:103B3000DF90CF90BF90AF909F908F907F906F90CD
:103B40005F904F903F900C94B111811424E0920645
:103B5000C9F2C4010E94F02C811101C0EA943FEF28
:103B6000831A930AE110F1CF1C821B8244244394F0
:103B70004AE0342E74018FEFE81AF80AC4010E945B
:103B8000F02C89831A82882309F4BCCF9FEF980F09
:103B9000933000F58A83498292E0890E911CC70117
:103BA0000E94F02C8B83882309F4ACCFFE01319660
:103BB0007F01F70120812223E9F2213009F049C079
:103BC00091818281913041F4F2E0EF0EF11C0E946C
:103BD000A21C09C04701EACF923049F422E0E20E6C
:103BE000F11C0E94F31A3FEFE31AF30AE2CF93307D
:103BF00031F432E0E30EF11C0E94F411F4CF943062
:103C000021F08FEFE81AF80AEECF92E0E90EF11CEE
:103C100030E020E0B7016F5F7F4FF70141818053B3
:103C2000990B8A30910550F021503109E0F28FE96B
:103C30009FE00197F1F700C00000F6CF329EF0013F
:103C4000339EF00D11249C012E0F3F1F842F7B010A
:103C5000E1CFE22FF0E0E253F34F5490822F8695AC
:103C60008695869590E0FC01E254F34F64902770AE
:103C7000712C022E02C0759467940A94E2F7E1E079
:103C80006E227724FC01E255F34FA490B12C022E52
:103C900002C0B594A7940A94E2F7F1E0AF22BB24E6
:103CA000FC01E256F34FC490D12C02C0D594C794C6
:103CB0002A95E2F721E0C222DD246114710419F093
:103CC00081EE0E94F31AA114B10419F086EE0E944D
:103CD000F31A852D0E94A21CAB2819F086EE0E94D3
:103CE000F411672819F081EE0E94F411CD2809F42F
:103CF0007ACF8CE26CCF81E00E94C9110E947211D0
:103D000001CF81E00E948E11F9CF82E0F5CF95EFCF
:103D1000E9169CE5F90609F46AC008F464C027E2D4
:103D200045EE66EEF6EFEF16FCE5FF0609F45AC421
:103D3000882309F479C41092AE0222E0E2162CE541
:103D4000F20608F44DC136E1E3163CE5F30638F01F
:103D500097012A5F3C452930310508F041C10E9496
:103D6000EA0C909357028093560280E1E8168CE5A6
:103D7000F80609F404C108F083C0E8E0EE16ECE5AB
:103D8000FE0609F4EEC008F04FC024E0E2162CE570
:103D9000F20609F4DEC090F582E0E8168CE5F8063C
:103DA00009F4D1C080915602826093E0E9169CE547
:103DB000F90609F4CBC060915602F090570284E0F6
:103DC00090E00E94FE2C6F2D81E290E00E94FE2C7C
:103DD0000E94991597CE27E245EE65EE03C426E2D0
:103DE00041EE60EEFFC327E245EE64EEFBC326E240
:103DF00041EE62EEF7C328E241E0EFCF8091560238
:103E00008061E6E0EE16ECE5FE0609F49FC08091C5
:103E100056028860F7E0EF16FCE5FF0608F496C04E
:103E200080915602806292C0809156028D7F2CE074
:103E3000E2162CE5F20609F489C060F48AE0E8167F
:103E40008CE5F80609F497C008F48FC080915602FB
:103E50008E7F7CC080915602877FEEE0EE16ECE507
:103E6000FE0609F473C0809156028B7FFFE0EF16C7
:103E7000FCE5FF0608F46AC0809156028F7E66C09A
:103E80002BEFE2162CE5F20609F467C068F583E132
:103E9000E8168CE5F80609F47AC090F4E1E1EE1634
:103EA000ECE5FE0609F46FC0F2E1EF16FCE5FF0653
:103EB00009F081CF0E949915809156028F7746C0F4
:103EC00025E1E2162CE5F20609F469C008F47DC08C
:103ED0008AEFE8168CE5F80609F06DCF809157025D
:103EE00081608093570267CF9FEFE9169CE5F90642
:103EF00009F451C0A0F4809157028D7FFDEFEF16B9
:103F0000FCE5FF0671F3809157028E7F2EEFE216DB
:103F10002CE5F20630F3809157028360E2CF31E066
:103F2000E3163DE5F30609F459C008F444C060E027
:103F300092E0E9169DE5F90609F03DCF8EE090E0AC
:103F40000E94FE2C38CF80915602816080935602E9
:103F500032CF809156028460F9CF809157028260FF
:103F6000C0CF809156028064F1CF0E949915809154
:103F700056028068EBCF809156028C60E7CF80912B
:103F800056028F7DE3CF809156028F7BDFCF8091E9
:103F90005602837FDBCF809157028C7FA2CF809126
:103FA000560282FB992790F921E0922790FB82F933
:103FB00090FB83F9CBCF80915702982F9095917009
:103FC0008E7F892B90FB81F98CCF0E94991590915F
:103FD0005602892F97FB87F98058B8CF61E0AECFA2
:103FE000E6E1EE16ECE5FE0609F02EC3809129020B
:103FF0008A7A91E009F490E090939A0169E2811144
:1040000065E384E691E00E94BF0F0E9405107ACD1F
:1040100090916802892F8E7F90FF81608093680263
:1040200080FF05C080E69DE00E9438086BCD8EE4DD
:104030009DE0FACF0E942F1565CDF801E080F18058
:104040008823D9F1C7010E94B50ED82E682FC70169
:104050000E94BB0AB7018D2D0E942B0D7C01882E7A
:10406000F801D280A580A2943FE0A322809126028D
:104070008770A1F0CD2CDD2091F08F2D807F8034D2
:1040800021F080E28E0D883048F082E00E94B1116C
:10409000809126028770CC24C3948111C12C3F2CBF
:1040A00032942FE03222FBE0F31508F442C0E32DF6
:1040B000F0E0E557F24D0C94CF2CC7010E94940A12
:1040C000D82EC8CF2F2D2F70A22E8F2D807F19F0C4
:1040D000A29490EFA922DD20C9F0AA2069F080E225
:1040E0008E0D883010F081100BC080912902A82A13
:1040F000A09229020E9405108E2D0E94F31A19C069
:1041000080912802A82AA0922802F4CF8E2D0E9426
:10411000F411AA2071F0A09480E28E0D883010F086
:1041200081103FC080912902A822A09229020E94FA
:104130000510232D2850330B2430310520F40E9424
:104140001D0B0E94C20CCC2009F49FCC809126024A
:1041500080FD9BCCF80112828595859585950E94FE
:10416000C911C8010E94231D80912602859585955D
:1041700085950F900F900F900F900F90DF91CF913A
:104180001F910F91FF90EF90DF90CF90BF90AF9075
:104190009F908F907F906F905F904F903F900C9486
:1041A0008E1180912802A822A0922802C0CF3F2D14
:1041B0003F70932E8F2D807F803219F0929480EF84
:1041C0009822882071F081E0881661F1DD20B9F134
:1041D000AA2071F1F801858180FF8ECF8F708583D1
:1041E00027C0DD2091F090912A02892D892BA11002
:1041F00003C00E9498109DCFE1E0AE12FACF98174D
:1042000009F497CF80932A0294CFA11006C00E9490
:104210008E0A892D0E948D108CCFF1E0AF1609F423
:1042200088CFF5CFDD2031F025E02A1508F481CFC5
:10423000892DDFCF34E03A1508F47BCFEACFAA20EE
:1042400041F3F9E38F1209C02FEF37EE83E02150DD
:1042500030408040E1F700C000008E2D0E94F41134
:1042600068CF8F2D86958695837061F0813009F037
:1042700060CFC7019370D11002C090E080E00E942F
:10428000F10A57CFC7019370D11002C090E080E0CF
:104290000E94070B4ECF8E2DDD2029F00E94250CA9
:1042A0000E94A21046CF0E94290BFACF8F2D837057
:1042B00009F066C0D1103DCF8E2D8295869587700E
:1042C000880F880F6E2D6F70462E512C712C612C2B
:1042D000082E04C0440C551C661C771C0A94D2F7A7
:1042E00040E050E0BA01E4FE0FC04FE050E060E073
:1042F00070E004C0440F551F661F771F8A95D2F7E0
:1043000040955095609570958F2D86958695837014
:10431000823019F1D8F480902B0290902C02A0905A
:104320002D02B0902E02813069F04429552966296A
:104330007729CB01BA01682179218A219B210E942A
:10434000EA11F7CE482859286A287B28CB01BA0100
:104350006429752986299729F2CF44295529662988
:10436000772940902B0250902C0260902D02709083
:104370002E02CB01BA016425752586259725DFCF4E
:104380008695DD2011F08F2D8170882309F4D1CE20
:104390008E2D829586958770880F880F6E2D6F7091
:1043A000462E512C712C612C082E04C0440C551C37
:1043B000661C771C0A94D2F740E050E0BA01E4FE94
:1043C0000FC04FE050E060E070E004C0440F551FA4
:1043D000661F771F8A95D2F7409550956095709526
:1043E0008F2D869586958370823019F1D8F4809050
:1043F000AF029090B002A090B102B090B2028130B2
:1044000069F04429552966297729CB01BA01682129
:1044100079218A219B210E9468118BCE4828592836
:104420006A287B28CB01BA01642975298629972936
:10443000F2CF44295529662977294090AF02509040
:10444000B0026090B1027090B202CB01BA01642553
:10445000752586259725DFCF9F2D9F70F92EDD20AE
:1044600029F0892F0E94C9118E2DC3CE8E2D0E9456
:104470008D108F2D0E948E115CCE8E2DE2EF8E1648
:1044800009F453C0E81578F0F0EF8F1629F121EF09
:10449000821609F442C0DD2009F46BC0A1102CCEB5
:1044A0008F2D8F713FC033EF831609F443C094EF13
:1044B0008912F1CFDD2009F451C02F2D2F71F22E7A
:1044C000822F0E94C91138E0F39EC001112483603D
:1044D000809326028F2D26C0DD20D1F0E4E0EA157E
:1044E00008F427CE2F2D2F7161E070E080E090E07E
:1044F00004C0660F771F881F991F2A95D2F7409036
:10450000AF025090B0026090B1027090B2029FCFA3
:10451000F5E0FA1508F40DCEE5CF8F2D8F71DD2073
:1045200009F4A8CF0E94C91104CE8F2D8F71DD2010
:10453000C9F3A0CF60E070E0CB01DD2009F46BCFC0
:104540002F2D2F7161E070E080E090E004C0660FD5
:10455000771F881F991F2A95D2F75DCF81E00E94AF
:10456000B11181E08A1508F0E4CD82E00E94B1111A
:10457000E0CDAA2059F0893309F06FCE9FEFE7EE26
:10458000F3E09150E040F040E1F765CE8F2D8F7160
:1045900071CFF0E1EF16FFE5FF0609F4ACCB21E1A6
:1045A000E2162FE5F20609F4B0CB93EFE9169CE58D
:1045B000F90609F414CC08F0AACBF8EDEF16FCE5E7
:1045C000FF0609F408CC29EDE2162CE5F20609F401
:1045D00012CC37EDE3163CE5F30609F0A9CB26E251
:1045E00041EE61EEC8010E94BF1C8CCA30E1E316A7
:1045F0003FE5F30609F485CB91E1E9169FE5F9065D
:10460000A1F682E07FCB85E0DE01119601900D924C
:104610008A95E1F7F801228189819A8121114CCA9A
:104620000E94940AF82E50CAF6E1EF16FCE5FF0648
:1046300009F003CD80919A0169E2811165E384E676
:1046400091E00E94840FE1CC21E0E2162CE5F20615
:1046500009F4DECC3EEDE3163CE5F30609F4EACCC2
:10466000E1149CE5F90609F0E8CC0E949915FFEFEA
:1046700024E33CE0F15020403040E1F700C000006E
:104680000E9464141F93CF93DF938091A301807FD6
:10469000A9F48091A001882389F08091D501D0915F
:1046A000A40160919E0170919F01A091A101B09120
:1046B000A201C62FC72316E0D81304C0DF91CF9103
:1046C0001F91089590E0109711F0CF3F19F40196D3
:1046D0008770F2CF189F9001199F300D1124F901B6
:1046E000EB55FE4F41814713F2CF40814613EFCF88
:1046F00042814111ECCF438154814A1B5B0B483C02
:10470000510528F78091A3018F7080618093A301E8
:10471000F901E655FE4F80818F70806180838EE9BC
:1047200091E00E94231DDF91CF911F910C94E70A25
:10473000AF92BF92CF92DF92EF92FF920F931F93AF
:10474000CF93DF93CDB7DEB761970FB6F894DEBF96
:104750000FBECDBF8C0185E0F801DE011D960190F2
:104760000D928A95E1F7F80180819181E2802EE92E
:10477000A22E21E0B22E6091A1017091A2016115DB
:10478000710509F43EC130919E0140919F01232F94
:1047900024232F3F09F435C1C380D480F090A001B9
:1047A000F601E61BF70BFF2009F4FBC02091A301E3
:1047B000522F507FE83CF10508F0BBC0511178C082
:1047C000FE2C491321C038131FC0E1101DC02F70EB
:1047D00020612093A301C5010E94231D8091A301A4
:1047E000F80185838F2D61960FB6F894DEBF0FBE5A
:1047F000CDBFDF91CF911F910F91FF90EF90DF9090
:10480000CF90BF90AF900895CD2829F0282F29236D
:104810002F3F09F014C120E0F22FF170DF2E20FFAE
:104820003DC02091D5014091A40156E0241315C04C
:104830008D879E878D859E850E94F70E292F229554
:104840002F702230F8F0243020F59F70F9F0F80135
:104850009581907FD9F4D12C1FC030E0529FF00198
:10486000539FF00D1124EB55FE4F6181961306C046
:104870006081861303C06281E61210C02F5F3F4F34
:104880002770D4CF9F7011F0882329F3805E883081
:1048900010F3C8010E94231DFD2CA4CFEE2009F4C3
:1048A000A1CF8091A30181608093A301F12C9ACFC5
:1048B000491312C0381310C0E1100EC0F80125834F
:1048C000C8010E94231D86E0F801AEE9B1E0019025
:1048D0000D928A95E1F786CF8D879E878D859E857F
:1048E0000E94010F882309F1EE20F9F08091A301C5
:1048F000803270F020919E0130919F0138872F8384
:104900001986DB86CA868C87CE0107960E94231DF6
:1049100086E0F801AEE9B1E001900D928A95E1F7E9
:104920000E944223FF24F3945DCFC8010E94231DFF
:10493000F9CF51110AC08EE991E00E94231D86E053
:10494000F50111928A95E9F7B1CF49130FC03813D9
:104950000DC0E1100BC0F8012583C8010E94231D82
:1049600086E0F50111928A95E9F73CCF8D879E8705
:104970008D859E850E94010F8823B9F2EE20A9F251
:104980008091A301803220F220919E0130919F01FD
:104990003A8329831B82DD82CC828E83CE010196ED
:1049A000B5CFE83CF105E0F6FE2CEE2009F4BDCFD2
:1049B000491316C0381314C08091A30180FD83CF22
:1049C000982F907F09F47FCFF8018583903F09F4F9
:1049D00077CF982F907F905F8F70892B858370CFD2
:1049E0008D879E878D859E850E94010F811190CFB6
:1049F0008091A30181608093A301C8010E94231DBF
:104A0000F1CEEE2009F491CF8D879E878D859E850E
:104A10000E94010FF82E882309F487CF86E0F80161
:104A2000AEE9B1E001900D928A95E1F780919E0187
:104A300090919F010E94F70E0E944223D3CE21E065
:104A40002E25EACE1F93CF93DF93CDB7DEB76797BE
:104A50000FB6F894DEBF0FBECDBF342F4B8B252F82
:104A60005C8B6D8B7E8B8F8B8E899F8961111092F1
:104A700028021A8A198A3D872E876F87998B888B1F
:104A800086E0FE013D96DE01179601900D928A9513
:104A9000E1F7CE0107960E949823882389F016E05B
:104AA0008091D5019091A401891349C067960FB6F2
:104AB000F894DEBF0FBECDBFDF91CF911F91089557
:104AC00086E0FE013796DE01119601900D928A95DF
:104AD000E1F78A859B85892B11F38F81988589233E
:104AE0008F3FE9F22091A40130E0C901019687705F
:104AF00099274091D5014817190671F40E9499151C
:104B00001092A4011092D50186E0EEE9F1E0DF01F8
:104B10001D928A95E9F7C3CF96E0929FD001939FAB
:104B2000B00D1124AB55BE4FFE01319601900D9290
:104B30009A95E1F78093A4010E94E70AB0CF819F84
:104B4000C00111248B559E4F0E949823882309F49D
:104B5000ADCF8091D50190E0019687709927809321
:104B6000D5019ECF1F920F920FB60F9211242F9353
:104B70003F934F935F936F937F938F939F93AF93E5
:104B8000BF93CF93DF93EF93FF93D091E900DF7052
:104B90008091EC00C82FC17080FDC0E81092E90040
:104BA0008091F000877F8093F00078940E94AE158A
:104BB0001092E9008091F00088608093F000CD2B86
:104BC000CF70C093E900FF91EF91DF91CF91BF913A
:104BD000AF919F918F917F916F915F914F913F9195
:104BE0002F910F900FBE0F901F9018951F920F924C
:104BF0000FB60F9211242F933F934F935F936F93B0
:104C00007F938F939F93AF93BF93EF93FF93809185
:104C1000E10082FF15C08091E20082FF11C0809107
:104C2000E1008B7F8093E10020917C022F5F822F37
:104C300062E30E94AF2C992309F4BEC020937C024A
:104C40008091DA0080FF28C08091D80080FF24C0C6
:104C50008091DA008E7F8093DA008091D90080FF06
:104C6000E1C080E189BD82E189BD09B400FEFDCFCC
:104C700081E08093A20284E09FE00E943808809146
:104C80007D02811109C00E94DA080E94A509809165
:104C9000E20084608093E2008091E10080FF1BC00D
:104CA0008091E20080FF17C08091E2008E7F8093A8
:104CB000E2008091E20080618093E2008091D80060
:104CC00080628093D80019BC85E08093A2028CE0BA
:104CD0009FE00E9438088091E10084FF2DC0809100
:104CE000E20084FF29C080E189BD82E189BD89B5E8
:104CF000982F917080FFFBCF8091D8008F7D80939B
:104D0000D8008091E1008F7E8093E1008091E200E5
:104D10008F7E8093E2008091E20081608093E200C8
:104D20008091A302882309F487C084E08093A202C3
:104D300080E19FE00E9438088091E10083FF2BC052
:104D40008091E20083FF27C08091E100877F8093FC
:104D5000E10082E08093A2021092A3028091E10020
:104D60008E7F8093E1008091E2008E7F8093E2004D
:104D70008091E20080618093E20042E060E080E0A8
:104D80000E9473098091F00088608093F00084E1B4
:104D90009FE00E943808FF91EF91BF91AF919F91E2
:104DA0008F917F916F915F914F913F912F910F90D4
:104DB0000FBE0F901F90189510927C0280917B027D
:104DC000882309F43DCF8091A2028430C1F49091F0
:104DD000E9009F702091EC00822F817020FD80E817
:104DE000892B95E09093E9009091EB0090FF04C02F
:104DF0009091EE0097FD08C08F708093E9001092AB
:104E00007B021ECF1092F1009091E80095FDFACF41
:104E10009091E80090FFF0CF9091E8009E779093FA
:104E2000E800EACF19BC1092A20288E09FE00E943D
:104E3000380810927D0230CF8091E30087FD93E027
:104E40009093A20275CFCDB7DEB7AB970FB6F894AB
:104E5000DEBF0FBECDBF84B7877F84BF0FB6F89487
:104E6000A895809160008861809360001092600036
:104E70000FBE80E890E00FB6F894809361009093A5
:104E800061000FBE85B7806885BF85B7806885BF24
:104E900087E693E190936301809362010E94DA08B0
:104EA0000E94A5098091E20084608093E2007894DA
:104EB0008091A2028823A1F01091E9001F709091C7
:104EC000EC00892F817090FD80E8182B1092E9008A
:104ED0008091E80083FD0E94AE151F701093E900D9
:104EE00082E084BD93E095BD9AEF97BD80936E00FC
:104EF0008091680283608093680284B18F6084B976
:104F00003E98469A3F9A8AB1806F8AB95F9A4798CD
:104F100084B1806784B985B1806785B910924702F2
:104F200010924602109249021092480210924B02CF
:104F300010924A0210924D0210924C0210924F02AF
:104F400010924E021092510210925002109253028F
:104F5000109252021092550210925402109237028F
:104F600010923602109239021092380210923B02CF
:104F700010923A0210923D0210923C0210923F02AF
:104F800010923E021092410210924002109243028F
:104F900010924202109245021092440286E492E07E
:104FA00090937A028093790286E392E0909335029F
:104FB000809334020E9488142FEF36E741E021509D
:104FC00030404040E1F700C000000E948814E091AA
:104FD0007902F0917A02808180FF17C06FEF82E240
:104FE00090E00E94FE2C6FEF83E290E00E94FE2C86
:104FF0006FEF84E290E00E94FE2C6FEF7FEF90E075
:1050000080E00E941C2D0E94641490E080E00E94C9
:10501000F82C8B3E9E4F11F00E942F15249A2C984D
:10502000259A2D98269A2E9882E290E00E94F02CE4
:10503000813209F0C3C383E290E00E94F02C8630F5
:1050400009F0BCC384E290E00E94F02C863109F0A4
:10505000B5C390E080E00E94F82C8B3E9E4F11F08B
:105060000E942F1582E090E00E94F02C809368024D
:105070000E94EA0C909357028093560283E090E0DE
:105080000E94F02C682F70E090E080E00E94EA110E
:1050900086E091E0909359028093580283EF9EE05E
:1050A0000E943808E0EB4E2EEEE05E2E8091A202C8
:1050B000853081F48FEE9EE00E94380800E112E115
:1050C0008091A2028530E9F10E9499150E941D0B82
:1050D0000E94C20C0E94881481110E94760A79E60F
:1050E000672E72E0772EF12CE12CEBA65701AA0C6B
:1050F000BB1CE0917902F0917A02EA0DFB1DC080A1
:10510000D180F301819091903F018C149D0409F0AE
:1051100059C0FFEFEF1AFF0A28E0E216F10429F761
:105120008FEF8EA38FA318A60E94820A8160782F2A
:105130009AA789A74EA15FA168A58AA50E942225EA
:105140006FC08091A202843039F180E00E94C20CCD
:1051500010925A0228E130E040E40FB6F894A89586
:10516000209360000FBE4093600083B7817F84600E
:1051700083BF83B7816083BF7894889583B78E7F20
:1051800083BF0FB6F894A8958091600088618093E2
:105190006000109260000FBE8091A102882309F484
:1051A0008FCF0E948814E0917902F0917A02CF01AA
:1051B000409621913191232B09F0EAC28E179F0767
:1051C000C1F77ECF8091680281FD1AC18C249D2495
:1051D00080E001E010E0940120233123232B09F427
:1051E0003DC189A39BA59AA3C022D12281E0CD28ED
:1051F00009F480E08BA30E94820A8160782F9DA32E
:105200008CA349A15AA16BA18DA10E942225F50171
:10521000E759FD4F80819181082719271183008369
:1052200086E0E1E6F2E0DE01119601900D928A95AA
:10523000E1F7E0906302F090640210916502009142
:10524000660210926302109264021092650210923C
:1052500066028E2D8F2991F080915F0290916002FD
:105260000E94670AAC0190915E02992309F4FDC087
:10527000809105018417150608F405C1812F802B44
:1052800009F448C080915C0290915D020E94670A17
:105290009C0190915B02992309F4B2C22536310535
:1052A000C8F19F3F19F09F5F90935B02112359F063
:1052B0000E94A20B9FEF11160CF491E0899F802DA4
:1052C000112480936502002359F00E94A20B9FEFE6
:1052D00010160CF491E0899F802D112480936602B2
:1052E000309165023323B1F020916602222391F0C0
:1052F00045EB3403C0011124992309F403C19093B1
:10530000650245EB240390011124332309F4FEC008
:10531000309366028091630290916402892B909190
:105320006502892B90916602892B11F00E94A210D0
:1053300086E0FE013196A1E6B2E001900D928A95D9
:10534000E1F70E941D0B90916702891751F10E94AD
:105350001D0B182F809367028091680282FF1EC088
:1053600080FF1CC08CED9EE00E943808809168028E
:1053700080FF14C01F921F9387ED9EE09F938F9331
:105380000E94D108809168020F900F900F900F90AB
:1053900080FF04C085ED9EE00E943808812F0E94A6
:1053A000C20C8091A202843009F080CE83E0809309
:1053B000E9008091E80082FF79CE8091E80090E0DA
:1053C00085FF0CC00E94F90830E2E32EF12C8E011B
:1053D0000F5F1F4F882309F4A7C091E08091E80078
:1053E0008B778093E800992309F460CEE981E1503E
:1053F000E33108F007C1F0E0E956F24D0C94CF2CF0
:105400008FEB9EE00E94380810E000E0C801880F92
:10541000991FE0917902F0917A02E80FF91F21803B
:1054200080810E94D20C382E822D0E94D20CE1E1A4
:10543000F1E0FF93EF933F928F931F930F935F924F
:105440004F920E94D1080F5F1F4F0FB6F894DEBF36
:105450000FBECDBF08301105C9F6B8CE8F5F000F63
:10546000111F803109F0B7CE54CE20910401EAE03B
:105470002E9F900111242417350708F0FFCE9F5F5F
:1054800090935E0202C09F3FD1F7EE2059F00E9438
:10549000DB0B9FEF1E140CF491E0899F802D1124EB
:1054A00080936302FF2059F00E94DB0B9FEF1F14D3
:1054B0000CF491E0899F802D112480936402309137
:1054C0006302332309F4DACE20916402222309F423
:1054D000D5CE45EB3403C0011124992359F09093A4
:1054E000630245EB240390011124332339F03093F8
:1054F0006402C4CE81E080936302F3CF81E08093A5
:105500006402BCCE81E080936502FBCE81E0809393
:10551000660200CF8091F100F80181938F01F1E0E4
:10552000EF1AF10809F459CF8091E80085FDF2CF18
:105530008091E8008B778093E8000E94F908882327
:1055400099F34BCF1A8289E08B8311C08A81823014
:1055500009F44DC1833091F1813009F053C00E94AC
:10556000760A0E94D52C6B837C838D839E838091E9
:10557000A202843009F09ACD1091E9001F70909139
:10558000EC00892F817090FD80E8182B82E08093D9
:10559000E9008091E80080FF0DC050E040E060E24B
:1055A00070E0CE0101960E942A098091E8008E7772
:1055B0008093E8001F701093E90078CDE0917902A4
:1055C000F0917A02DE011196CF014096208131815F
:1055D000329612963C93129713962C931397129629
:1055E000E817F90799F7C3CF8A81823059F46B81A4
:1055F0007C818D819E810E94D52C85E290E00E9465
:10560000FE2CB5CF8FEF8983B2CF4C816B818A811D
:105610000E94F80C9827892798279E838D83A7CF0F
:105620000D811E81102701271027EA80F12CFE2C06
:10563000EE248B8120E2829FC0011124E80EF91E26
:105640008C8190E0880F991FE80EF91E612FC70129
:1056500086960E94FE2C602FC7018796D0CF0E94AD
:10566000250F85CF80E18A8382CF1A828AED6CCFA5
:105670000A811B81102701271027CE0101967C018A
:10568000CC80FC01EC0DF11D6F01C8018A5D9C4FBF
:10569000EC14FD0409F46BCF0A3D110550F40E948F
:1056A000F02CF70184830F5F1F4FFFEFEF1AFF0A03
:1056B000ECCFF7011482F7CF0A811B811027012755
:1056C00010279E012F5F3F4F6901EC80E00EF12E05
:1056D000F11CC8018A5D9C4FE016F10609F447CF22
:1056E0000A3D110520F4F60164810E94FE2CFFEFB3
:1056F000CF1ADF0A0F5F1F4FECCF0E94740F37CF16
:1057000083E0B1CF0A811B811027012710279E015A
:105710002F5F3F4F7901CC80C9018C0D911D6C0129
:10572000C8018696CE14DF0409F421CF0115E3E009
:105730001E0750F40E94F02CF70184830F5F1F4F67
:10574000FFEFEF1AFF0AECCFF7011482F7CF0A81BF
:105750001B811027012710279E012F5F3F4F6901F2
:10576000EC80E00EF12EF11CC8018696E016F106E1
:1057700009F4FDCE011533E0130720F4F60164812E
:105780000E94FE2CFFEFCF1ADF0A0F5F1F4FECCFF6
:1057900009BD19BD09B400FEFDCF8091D8008F7DF1
:1057A0008093D8008091E00082608093E000809137
:1057B000E00081FDFCCF0E94991582CC60E085E27B
:1057C00090E00E94FE2C0E94250F0E94740F61E25F
:1057D00082E290E00E94FE2C66E083E290E00E946C
:1057E000FE2C66E184E290E00E94FE2C32CC85E241
:1057F00090E00E94F02C1B821C821D828E83B7CE0B
:105800002D32314008F04FCD85CD78941F921FB6D0
:105810001F9211248F939F93AF93BF9380912F0278
:1058200090913002A0913102B09132020196A11DF7
:10583000B11D80932F0290933002A0933102B09358
:105840003202BF91AF919F918F911F901FBE1F9009
:1058500018951F921FB61F9211248F939F93AF9399
:10586000BF9380915A02811113C080912F029091B1
:105870003002A0913102B09132024196A11DB11DBA
:1058800080932F0290933002A0933102B0933202A2
:10589000BF91AF919F918F911F901FBE1F90189540
:1058A0001F921FB61F9211248F939F93EF93FF9324
:1058B0008091B900887F8038C1F038F4882309F4DA
:1058C0004BC0803679F081E022C0883A11F0883BE5
:1058D000D1F7E0919401F0E0EC57FE4F8081809386
:1058E000BB0031C010929501EECF809195018111DE
:1058F00022C08091BB0080939401809194018031FB
:10590000C0F01092940180E091E090939501909105
:10591000BC008295880F880F807C892B85688093D6
:10592000BC00FF91EF919F918F911F901FBE1F9020
:10593000189581E0E9CFE0919401F0E08091BB00FF
:10594000EC57FE4F80838091940190E001968F7018
:10595000992780939401B7CF1092BC00B4CF991BC4
:1059600079E004C0991F961708F0961B881F7A9556
:10597000C9F78095089597FB072E16F4009407D079
:1059800077FD09D00E94DC2C07FC05D03EF49095F1
:1059900081959F4F0895709561957F4F0895EE0F03
:1059A000FF1F0590F491E02D099469279627692738
:1059B0007827872778270895AA1BBB1B51E107C0CA
:1059C000AA1FBB1FA617B70710F0A61BB70B881F8F
:1059D000991F5A95A9F780959095BC01CD0108951E
:1059E000F999FECF92BD81BDF89A992780B50895A7
:1059F000A8E1B0E042E050E00C94242D262FF99964
:105A0000FECF92BD81BDF89A019700B4021639F01D
:105A10001FBA20BD0FB6F894FA9AF99A0FBE0895EE
:105A20000396272F0E94FF2C0E94FE2C252F0E94F8
:105A3000FF2C242F0C94FF2C0196272F0E94FF2C63
:105A40000C94FE2CDC01CB01FC01F999FECF06C0C1
:105A5000F2BDE1BDF89A319600B40D92415050402C
:105A6000B8F70895F894FFCF100F100F190F190F02
:105A70001B0F190F190F190F100F100F200F190FEF
:105A8000190F200F9316BB160E17BB160E17EE1626
:105A900026170E17231830181F1A0C1A301AA418BC
:105AA000ED1AED1A071AED1AED1A5C1AED1A6C1AB6
:105AB000D31AED1AED1AED1AED1A8F1AED1AED1A26
:105AC0007C1AED1A471AED1AED1AEB1AEB1AEB1ABB
:105AD000EB1AEB1AEB1AEB1AEB1AEB1AE51AED1AA2
